:1000000024C056C03CC03BC058C039C038C037C0FF
:1000100036C035C034C033C032C0B3C030C02FC0CA
:100020002EC02DC02CC02E2E31304D487A2E2E00E1
:100030002E2E5369676E616C4465636F6465722030
:1000400056302E3131202E2E000011241FBECFED50
:10005000CDBF10E0A0E6B0E0EEEFF7E003C0C8953A
:1000600031960D92A036B107D1F710E0A0E6B0E0CE
:1000700001C01D92A33BB107E1F75AD3BFC3C0CF64
:100080008FEF87BB8AEE81BB85E182BB88E08EBDA6
:1000900086E693E09BBD8ABD8EE286BF82E080BF8C
:1000A00093E093BF81E489BF80E48BBF95BF08953F
:1000B0000F9309E00EBD0F9118951F920F920FB686
:1000C0000F9211242F938F939F93EF93FF93829B13
:1000D00002C0A79801C0A79A88E08EBD1DBC1CBCB9
:1000E0002091B0002F5F2093B000A09B09C0A79B78
:1000F00004C02A30E0F182E039C01092B00037C06D
:10010000A19B05C0A79933C01092B10027C0A29B44
:1001100017C09091B200990FA79991609093B20087
:10012000283029F58091B1008630F9F0E82FFF27BB
:10013000EC59FF4F90838F5F8093B10024BB17C0B1
:10014000A39B13C0A79B0AC081E084BB8093B0002F
:100150008091B1008093AD00989A09C084E084BB7F
:100160001092B0001092B20002C081E084BBFF91F7
:10017000EF919F918F912F910F900FBE0F901F9035
:1001800018951F920F920FB60F9211242F933F9341
:100190004F935F938F939F93EF93FF937894209166
:1001A000AE002F5F2093AE00213A09F584E68093DC
:1001B000AE0091E020E030E0EEE6F0E080818536B0
:1001C00018F088B3892B88BB2F5F3F4F38962830B3
:1001D000310511F0990FF2CF9A9A80916A00882325
:1001E000D9F080916A00815080936A0015C031E097
:1001F00040E050E0EEE6F0E08081281728F088B378
:10020000932F9095892388BB4F5F5F4F3896483076
:10021000510511F0330FF0CFFF91EF919F918F9126
:100220005F914F913F912F910F900FBE0F901F90B4
:10023000189531E040E050E0782F7623A6E1282F92
:1002400020952623EBE6F0E0832F872331F0A0836F
:1002500085B3932F9095892385BB832F822331F01B
:10026000108285B3932F9095892385BB4F5F5F4F95
:1002700038964830510511F0330FE6CF089531E03C
:1002800040E050E0EBE6F0E08081882389F0282F01
:10029000215069F485B3832331F0228185B3932FF4
:1002A0009095892303C0218185B3832B85BB20834F
:1002B000938185B3832331F08481981768F4858115
:1002C000980F0AC08681891738F48781891710F042
:1002D00090E002C08781981B93834F5F5F4F3896F1
:1002E0004830510511F0330FCFCF08951F9310916F
:1002F00063001F70F894999A80916000873009F02C
:100300007EC0112379F4AB98AA98A99AA89887E39C
:1003100080936B00809373001092750010927B00A5
:100320008BE110C0113089F4AB9AAA98A99AA89AC7
:1003300087E380936B008093730010927500809325
:100340007B0082E58093830048C1123011F46FE096
:100350003FC0133091F4AB98AA98A99AA89887E364
:1003600080937300809374008093750010926B00EB
:1003700010927B001092830030C1143089F4AF9842
:10038000AE98AD9AAC9887E380938B0010928C0066
:10039000809393001092950010929B008BE1A6C071
:1003A000153099F4AF9AAE98AD9AAC9A87E38093E2
:1003B0008B0010928D008093930010929500809393
:1003C0009B0010929C0082E570C0163019F460EF1B
:1003D00080E002C1173009F000C1AF98AE98AD9A25
:1003E000AC9887E38093930080939400809395006A
:1003F00010928B0010929B001092A300EEC08630EA
:1004000059F4212F3327B32FA22FAB5BBF4FE2D17B
:10041000602D2B5C3F4FDBC0853059F4212F3327F3
:10042000B32FA22FAB59BF4FD5D1602D2B5A3F4FC1
:10043000CEC0843009F05FC0112351F467E080E042
:10044000F8DEAB9A8EE68093830010928500C5C0DB
:100450001130F1F4AB98AA98A998A89887E38093F3
:100460006B008BE180936D0080936C008093730030
:10047000809375008093740080937B0080937D004F
:1004800080937C008EE68093830010928400A5C048
:10049000123009F4A2C0133009F49FC0143051F493
:1004A00060E780E0C6DEAF9A8EE68093A3001092EC
:1004B000A50093C0153009F090C0AF98AE98AD98E4
:1004C000AC9887E380938B008BE180938D008093C1
:1004D0008C00809393008093950080939400809388
:1004E0009B0080939D0080939C008EE68093A300E8
:1004F0001092A40072C0833009F03FC01430D8F4C9
:1005000080916100882311F0833091F4A091620002
:100510008A2F9927B92FA82FA35DBF4F5BD1602DDC
:10052000B92FA82FAB5DBF4F55D1802D772781DE26
:100530001093610004C0183090F410936200212FD2
:100540003327B32FA22FA35DBF4F44D1602D2B5D66
:100550003F4FB32FA22F3ED1802D77276ADE8091A7
:100560006100882319F0833009F037C0A4E3B0E0BC
:1005700031D1602DACE2B0E02CC0823069F418308B
:1005800060F5212F3327B32FA22FA35DBF4F22D1B8
:10059000602D2B5D3F4F1BC0813069F41830E8F4AB
:1005A000212F3327B32FA22FA35EBF4F13D1602D6E
:1005B0002B5E3F4F0CC0183080F4212F3327B32F10
:1005C000A22FA35FBF4F06D1602D2B5F3F4FB32FEC
:1005D000A22F00D1802D77272CDE78941F910895CB
:1005E00090E020E030E005C0FF27EC59FF4F80810C
:1005F0009827E22F8091AD002F5F3F4FE817A0F3BF
:10060000992309F044C080916400807C803809F00F
:100610003EC08091650087FF3AC08091650083FFEE
:1006200036C06091650067706093630080916500DB
:100630008095807720916400880F482F5527440FBC
:10064000551F2F733327422B532B5093AC004093ED
:10065000AB00A2E0B0E0BED0802DA1E0B0E0BAD007
:10066000202D9927982F88273327822B932B4817E3
:10067000590751F001964817590719F081E090E0A9
:100680000895685F6093630082E090E0089580E0E1
:1006900090E00895F89482E080936A0078948091C5
:1006A0006A008823E1F7809942C0969A9898809BC7
:1006B000FECFF89482E080936A00789480916A007B
:1006C000882339F1FBCF989B24C0989889DF882331
:1006D00001F18091AB00A1E0B0E0082E83D08091C1
:1006E000AC00A2E0B0E0082E7DD08091630087705E
:1006F000A3E0B0E0082E76D08093600080E0A4E014
:10070000B0E0082E6FD0E199FECF9698E0E0F0E0DF
:1007100009958099D8CF9698F89482E080936A00E2
:10072000789480916A008823E1F7809BFECF08953A
:10073000A7DC84E635E021EA94E0EBE6F0E0838391
:100740003583248397838683389640E0EB3AF40719
:10075000B1F7A3E0B0E03ED0802D992780936000F0
:10076000843011F0873049F48EE3809388008093C1
:100770008A008093A8008093AA00A4E0B0E02AD069
:10078000802D992785BB13BA81E084BB7894F894B7
:10079000989B06C0789424DF823009F4A7DD9898EE
:1007A00078947894F894999B09C07894999884994E
:1007B00005C085B3A4E0B0E0082E14D078947894F6
:1007C000F8949A9B03C078949A9859DD8099DFCF6A
:1007D00061DFDDCFE199FECFBFBBAEBBE09A1196E2
:1007E0000DB20895E199FECFBFBBAEBB0DBA119615
:0E07F0000FB6F894E29AE19A0FBE0895FFCF7B
:00000001FF
