:1000000033C064C04AC049C066C047C046C045C08E
:1000100044C043C042C041C040C0C1C03EC03DC05A
:100020003CC03BC03AC0D0C1DDC1E3C1E9C1CEC1D3
:10003000D4C1DAC1E0C1E7C1F4C1FAC100C2E5C16F
:10004000EBC1F1C1F7C12E2E384D487A2E2E002E6D
:100050002E5369676E616C4465636F6465722056E8
:10006000302E3131202E2E0011241FBECFEDCDBFFA
:1000700010E0A0E6B0E0E0E0F7E002C005900D92ED
:10008000A036B107D9F710E0A0E6B0E001C01D929C
:10009000A33BB107E1F7B7D231C3B2CF8FEF87BB34
:1000A0008AEE81BB85E182BB88E08EBD88EB92E061
:1000B0009BBD8ABD85E286BF82E080BF93E093BF8F
:1000C00081E489BF80E48BBF95BF08950F9309E059
:1000D0000EBD0F9118951F920F920FB60F9211241B
:1000E0002F938F939F93EF93FF93829B02C0A798C8
:1000F00001C0A79A88E08EBD1DBC1CBC2091B00039
:100100002F5F2093B000A09B09C0A79B04C02A309A
:10011000E0F182E039C01092B00037C0A19B05C069
:10012000A79933C01092B10027C0A29B17C090912D
:10013000B200990FA79991609093B200283029F5E9
:100140008091B1008630F9F0E82FF0E0EC59FF4FD4
:1001500090838F5F8093B10024BB17C0A39B13C013
:10016000A79B0AC081E084BB8093B0008091B1005E
:100170008093AD00989A09C084E084BB1092B000CF
:100180001092B20002C081E084BBFF91EF919F9179
:100190008F912F910F900FBE0F901F9018951F9267
:1001A0000F920FB60F9211242F933F934F935F93AB
:1001B0008F939F93EF93FF9378944091AE004F5F9E
:1001C0004093AE00413A31F584E68093AE0091E071
:1001D00020E030E0F90143E0EE0FFF1F4A95E1F720
:1001E000E559FF4F8381853618F088B3892B88BB8A
:1001F0002F5F3F4F2830310511F0990FEBCF9A9ABE
:1002000080916A00882301F180916A008150809377
:100210006A001AC051E020E030E0F90183E0EE0FFF
:10022000FF1F8A95E1F7E559FF4F8381481728F0B2
:1002300098B3852F8095892388BB2F5F3F4F283047
:10024000310511F0550FE9CFFF91EF919F918F91FB
:100250005F914F913F912F910F900FBE0F901F9084
:10026000189541E020E030E0562F582376E1809544
:100270006823852F842371F0F901B3E0EE0FFF1F8F
:10028000BA95E1F7E559FF4F708395B3842F8095B8
:10029000892385BB862F842371F0F901A3E0EE0F3B
:1002A000FF1FAA95E1F7E559FF4F108295B3842F00
:1002B0008095892385BB2F5F3F4F2830310511F092
:1002C000440FD7CF089551E020E030E0F90173E00A
:1002D000EE0FFF1F7A95E1F7E559FF4F80818823E4
:1002E000C9F0482F415069F485B3852331F042812C
:1002F00095B3852F8095892303C0418185B3852BD4
:1003000085BBF90163E0EE0FFF1F6A95E1F7E55940
:10031000FF4F4083F90193E0EE0FFF1F9A95E1F73D
:10032000E559FF4F938185B3852331F08481981778
:1003300068F48581980F0AC08681891738F487810F
:10034000891710F090E002C08781981BF90183E0C3
:10035000EE0FFF1F8A95E1F7E559FF4F93832F5F5B
:100360003F4F2830310511F0550FB0CF089520913F
:1003700063002F70F894999A283088F480E090E018
:10038000FC01B3E0EE0FFF1FBA95E1F7E559FF4F0F
:100390001282118201968430910591F710C084E099
:1003A00090E0FC01A3E0EE0FFF1FAA95E1F7E559ED
:1003B000FF4F1282118201968830910591F7E22F4A
:1003C000F0E0ED5EFF4F099481E01BC089E180936E
:1003D0007D0080937C008CE014C089E180937D00D7
:1003E00080937C0084E00DC089E180938500809338
:1003F00084008AE006C089E18093750080937400D0
:1004000082E06FE01EC081E11BC089E180939D0006
:1004100080939C008CEC14C089E180939D008093B4
:100420009C0084E40DC089E18093A5008093A40022
:100430008AEA06C089E1809395008093940082E265
:1004400060EF0FDF7894089590E020E007C0E92F77
:10045000F0E0EC59FF4F808128279F5F8091AD002D
:100460009817A8F3222309F049C080916400807C8A
:10047000803809F043C08091650087FF3FC08091BC
:10048000650083FF3BC06091650067706093630007
:10049000809165008095807720916400880F482FB7
:1004A00050E0440F551F2F7330E0422B532B5093D5
:1004B000AC004093AB00E199FECF82E090E08EBBB0
:1004C000E09A7DB3E199FECF81E090E08EBBE09AA7
:1004D0008DB3282F30E0972F80E0282B392B42173F
:1004E000530751F02F5F3F4F4217530711F081E040
:1004F0000895685F6093630082E0089580E0089546
:10050000CF92DF92EF92FF920F931F93CF93DF93DF
:10051000F89482E080936A00789480916A0088233E
:10052000E1F7809967C0969A9898809BFECFF894DF
:1005300082E080936A00789480916A008823E1F7D2
:100540003FC0989B49C098987FDF882309F444C036
:100550008091AB009091AC00E199FECF1CBACEBA6D
:100560008DBB0FB6F894E29AE19A0FBEE199FECFE7
:100570001CBAEEBA9DBB0FB6F894E29AE19A0FBE90
:10058000809163008770E199FECF1CBA0EBB8DBBD2
:100590000FB6F894E29AE19A0FBE80936000E19959
:1005A000FECF1CBACEBB1DBA0FB6F894E29AE19A00
:1005B0000FBEE199FECF9698E0E0F0E009950CC0FF
:1005C00021E0C22E20E0D22E92E0E92E90E0F92E1A
:1005D00003E010E0C4E0D0E08099B3CF9698F8949F
:1005E00082E080936A00789480916A008823E1F722
:1005F000809BFECFDF91CF911F910F91FF90EF90E5
:10060000DF90CF9008951F938FEF87BB8AEE81BB59
:1006100085E182BB88E08EBD88EB92E09BBD8ABD00
:1006200085E286BF82E080BF93E093BF81E489BF0B
:1006300080E48BBF95BF80E090E024E655E041EA7E
:1006400034E0FC0163E0EE0FFF1F6A95E1F7E55926
:10065000FF4F238355834483378326830196883055
:10066000910579F7E199FECF83E090E08EBBE09AA7
:100670008DB380936000843011F0873049F48EE3AD
:100680008093880080938A008093A8008093AA00BA
:10069000E199FECF84E090E0182F8EBBE09A8DB3F5
:1006A00085BB13BA81E084BB7894F894989B06C00C
:1006B0007894CADE823009F45ADE98987894789457
:1006C000F894999B0FC07894999884990BC085B33E
:1006D000E199FECF1CBA1EBB8DBB0FB6F894E29A0F
:1006E000E19A0FBE78947894F8949A9B03C078941A
:1006F0009A98E9DD8099D9CF03DFD7CFF894FFCF5F
:00000001FF
