:1000000010C0189518951895189518951895189565
:100010001895189518951895189518951895189578
:1000200018958FE58DBFC8E5E0E74E2E81E08EBFC5
:10003000D1E0F1E05F2EA89584B7082E877F84BFBA
:1000400088E1992781BD91BDEEEFF0E0A0E6B0E038
:1000500088278D933197E9F76624709168007F7740
:1000600070936800A0E6B0E0E4E4F3E0A9D0B89AA9
:10007000B998D19AD39AA4E6B0E0E8E4F3E0A0D02E
:10008000A8E6B0E08C9187FB0EF429C0DB9AE2E091
:10009000F0E070D0D99AE4E6F0E0B9D0ECE4F3E017
:1000A00048D19CD008F016C0B19B02C0DB98FFCFAE
:1000B00081E090E06ED0A4E6B0E0E0E5F3E039D175
:1000C000E4E6F0E0A4D0E7D0EDE0F0E0A4E6B0E0B4
:1000D0007FD0E1CF70916800706870936800A4E6EB
:1000E000B0E0E8E4F3E06CD0DB9AD998B19B41C072
:1000F000E4E6F0E08CD0E0E6F0E08ED06FD008F0DF
:1001000015C0DB98D99AC09A81E090E042D0A4E66D
:10011000B0E0E0E5F3E00DD1E4E6F0E078D0BBD06C
:10012000EDE0F0E0A4E6B0E053D0E2CFA4E6B0E02A
:10013000E8E4F3E045D0E4E6F0E069D0E4E5F3E09C
:10014000F8D04CD008F015C0C098D99ADB9AA4E634
:10015000B0E0E0E5F3E0EDD0E4E6F0E058D09BD08D
:10016000EDE0F0E0A4E6B0E033D081E090E011D023
:10017000E2CF86CF88EE93E00CD03197D9F708957F
:100180003197F1F70895689462F80895E89462F859
:100190000895EF93FF93EE27E82BE92B31F0E8EC7D
:1001A000F0E03197F1F70197D1F7FF91EF910895C2
:1001B000C89531960020089591E005C092E003C0F3
:1001C00094E001C098E0F4DF0D929A95E1F708956C
:1001D00094E081918D939A95E1F708950F928F9312
:1001E0009F93D216E306F4060FB680E890E88027C6
:1001F00095270FBE890739F00FB6892B87FD02C0FE
:1002000081E008260FBE9F918F910F900895D190A5
:10021000E190F19001910895219131914191519195
:100220000895D094E094F09491E0D90E9927E91EB6
:10023000F91E10950895652F90E8440F551F592712
:10024000990F47956078102F90E8FF0C001F092741
:10025000990FF794107800380895FF0C90E89027D4
:10026000110F9795F794092F08959FE7092FF92A01
:100270009FEFD92EE92E0895DD24EE24FF240027D8
:10028000112708950AF045D0E8CF5FE322273327EE
:10029000442701C0C1DFCFDF5038B1F3003899F3F4
:1002A000902F951B8BF312F434D0FACF983118F0BD
:1002B000222733274427983028F0232F342F442730
:1002C0009850F9CF992329F04695379527959A9517
:1002D000D9F7912F962742F014D0B0F6F794E7940F
:1002E000D7940F5F8BF6C1CF10D051F008F499DF8F
:1002F000FF2052F2DD0CEE1CFF1C0150CBF7B5CFF6
:10030000BBCFD20EE31EF41E0895D21AE30AF40AFC
:100310000895DF92EF92FF920F931F93D22EE32E58
:10032000F42E052F162F6F915F914F913F912F91D2
:1003300008953EDF202D3CDF302D3ADF402D38DFA1
:10034000502D089500401C4600000000005F6A47E1
:080350000000803F00409C45C5
:00000001FF
