:1000000023C0C0C02FC02EC0C2C02CC02BC02AC06D
:1000100029C028C027C026C025C01DC123C022C0BA
:1000200021C020C01FC02E2E5369676E616C4465CD
:10003000636F6465722056302E31322E2E002E2EC4
:10004000384D487A2E2E000011241FBECFEDCDBFB3
:1000500020E0A0E6B0E001C01D92A43BB207E1F7AA
:1000600058D197C3CDCF482F409520E030E091E0A4
:10007000862376E14623582F592399F0F90163E04E
:10008000EE0FFF1F6A95E1F7E559FF4F708365B3E7
:10009000592F5095562355BB5091AD00592B509375
:1000A000AD00542F592399F0F90153E0EE0FFF1FD3
:1000B0005A95E1F7E559FF4F108255B3692F6095C6
:1000C000562355BB5091AD0056235093AD00990F68
:1000D0002F5F3F4F2830310571F608950F931F931E
:1000E000CF93DF9390E080E007C0E82FF0E0EC5979
:1000F000FF4F208192278F5F2091AE008217A8F3D7
:1001000091113AC080916400807C8038A9F580917B
:10011000650087FF31C08091650083FF2DC010917D
:100120006500177010936300C0916500C095C0779B
:1001300080916400CC0FD0E0CC0FDD1F8F73C82BF3
:10014000D093AC00C093AB0084E790E00CD3082FB1
:1001500085E790E008D3282F302FC217D30741F04E
:100160002F5F3F4FC217D30729F4185F1093630026
:1001700082E003C081E001C080E0DF91CF911F9158
:100180000F9108950F9309E00EBD0F9118951F92DE
:100190000F920FB60F9211242F938F939F93EF938B
:1001A000FF93829B02C0A79801C0A79A88E08EBDEA
:1001B0001DBC1CBC8091B1008F5F8093B100A09BDF
:1001C00009C0A79B04C08A30E0F182E039C01092D8
:1001D000B10037C0A19B05C0A79933C01092B200EF
:1001E00027C0A29B17C09091B300990FA799916067
:1001F0009093B300883029F52091B200263009F49D
:100200001EC0E22FF0E0EC59FF4F90832F5F209348
:10021000B20016C0A39B13C0A79B0AC081E084BB99
:100220008093B1008091B2008093AE00989A09C08B
:1002300084E084BB1092B1001092B30002C081E050
:1002400084BBFF91EF919F918F912F910F900FBEE3
:100250000F901F9018951F920F920FB60F921124B6
:100260002F933F934F938F939F93EF93FF937894A4
:100270008091AF008F5F813A21F584E68093AF00D3
:1002800080E090E021E0FC0143E0EE0FFF1F4A9583
:10029000E1F7E559FF4F3381353618F038B3322B8B
:1002A00038BB220F01968830910569F79A9A8091A0
:1002B0006A00882311F180916A00815080936A005E
:1002C0001CC08093AF0080E090E021E0FC0133E0AF
:1002D000EE0FFF1F3A95E1F7E559FF4F338140914B
:1002E000AF00431728F048B3322F3095342338BB82
:1002F000220F01968830910549F7FF91EF919F9168
:100300008F914F913F912F910F900FBE0F901F90A3
:100310001895CF93DF9300D0CDB7DD278FEF87BB44
:100320008AEE81BB85E182BB88E08EBD88EB92E0DE
:100330009BBD8ABD85E286BF82E080BF83E083BF2C
:1003400091E499BF90E49BBF85BF80E090E024E6F4
:1003500055E041EA34E0FC01A3E0EE0FFF1FAA954F
:10036000E1F7E559FF4F2383558344833783268381
:1003700001968830910579F783E790E0F4D1809376
:100380006000843049F48EE38093880080938A0073
:100390008093A8008093AA0082E790E0E4D185BB17
:1003A00085B38093AD0081E790E0DDD1809361005B
:1003B00080E790E0D8D18093620013BA81E084BBDB
:1003C000789477E3E72E1BE10EE6E2E0FE2EF89448
:1003D000989B19C1789482DE823009F013C1209174
:1003E00063002F70F894999A80916000863059F4D8
:1003F000C22ED12CC601805E9F4FB5D1682FC60199
:10040000805D9F4FFAC0853059F4C22ED12CC601B1
:1004100080509040A8D1682FC601805F9F4FEDC0EB
:10042000843009F083C021110EC067E080E01BDE3C
:10043000AB9A8091AD0088608093AD0000938300FB
:1004400010928500DEC0213061F5AB988091AD003F
:10045000982F977F9093AD00AA98982F937F9093B1
:10046000AD00A998982F917F9093AD00A898807FB8
:100470008093AD00E0926B0010936D0010936C00C0
:1004800010937300109375001093740010937B0009
:1004900010937D0010937C000093830010928400E1
:1004A000B0C0223009F4ADC0233009F4AAC0243012
:1004B00071F460E780E0D7DDAF9A8091AD0080688D
:1004C0008093AD000093A3001092A5009AC0253040
:1004D00009F097C0AF988091AD00982F9F779093C7
:1004E000AD00AE98982F9F739093AD00AD98982F64
:1004F0009F719093AD00AC988F708093AD00E092A7
:100500008B0010938D0010938C0010939300109328
:1005100095001093940010939B0010939D001093EE
:100520009C000093A3001092A4006BC08330D9F507
:100530002430D0F480916100882311F0833089F455
:10054000C0906200D12CC601805C9F4F29830BD1E3
:10055000682FC601885B9F4F6A8305D16A8183DD5E
:1005600029812093610004C0283080F42093620028
:10057000C22ED12CC601805C9F4FF5D0682FC601DA
:10058000885B9F4F6A83EFD06A816DDD8091610047
:10059000882311F08330A9F587E490E0E4D0682F38
:1005A0008FE490E02AC0823069F4283050F5C22EE2
:1005B000D12CC601805C9F4FD6D0682FC601885BC6
:1005C0009F4F1BC0813069F42830D8F4C22ED12C43
:1005D000C601805B9F4FC7D0682FC601885A9F4FC6
:1005E0000CC0283070F4C22ED12CC601805A9F4F07
:1005F000BAD0682FC60188599F4F6A83B4D06A81E8
:1006000032DD7894989878947894F894999B13C0F4
:100610007894999884990FC06091AD0082E790E03A
:10062000AAD06091610081E790E0A5D0609162005E
:1006300080E790E0A0D078947894F8949A9903C0D9
:100640008099C5CE46C078949A9880E090E051E0B9
:100650009C0163E0220F331F6A95E1F7F901E55928
:10066000FF4F4081442399F0415069F445B345233D
:1006700031F0428175B3652F6095672303C04181D6
:1006800065B3652B65BBF901E559FF4F4083F9015F
:10069000E559FF4F438165B3652331F06481461707
:1006A00068F46581460F0AC06681641738F4678173
:1006B000641718F46781461B01C040E0F901E55951
:1006C000FF4F4383550F01968830910509F0C0CF45
:1006D000B7CFF894F0926A00789480916A00811103
:1006E000FCCF809974CE969A9898809BFECFF89410
:1006F000F0926A00789480916A008111FCCF25C045
:10070000989B23C09898EADC8823F9F06091AB00AD
:1007100085E790E030D06091AC0084E790E02BD08A
:10072000209163002770622F83E790E0298323D014
:1007300029812093600060E082E790E01CD0E1997D
:10074000FECF9698E0E0F0E009958099D9CF969891
:10075000F894F0926A00789480916A008111FCCF3D
:10076000809BFECF34CEE199FECF1FBA8EBBE09ABC
:1007700099278DB30895262FE199FECF1CBA1FBA91
:100780008EBB2DBB0FB6F894E29AE19A0FBE01968C
:060790000895F894FFCF6C
:00000001FF
