:020000040000FA
:1000000083018B018A015D28A000030EA1008301FA
:100010000C1C0D2885010C10C0168B1C3A280519E4
:100020001828B03081000B118B10831601173A2865
:1000300003140B190310A70DA60DA50DA40DA30DF8
:10004000A20DC0302304FF3A031D3F28F8302405D9
:10005000F03A031D3728271C372840142708AC0026
:100060002608AB002508AA002408A900A3018B10CC
:1000700083160113210E8300A00E200E0900A21783
:10008000220F3728F0302305E03A031D37284014AB
:10009000C0152708AC002608AB002508AA002408D4
:1000A000A9002308A8003728820701340234043449
:1000B00008341034203440348034850107309900EE
:1000C00083160C308500FF23900033309500960195
:1000D00099018830810001308C0083128C0101303D
:1000E0009000203084008001840A60300406031DE3
:1000F0007328D0308B009630D000D100D200D300CE
:10010000C201C301C401AD01212337184A2340189D
:10011000E721C01ABF208728C013851DAD283108EC
:1001200080382B06F039031DA22A2A083F393006F1
:10013000031DA22A2B080F398207A22AA22AA22A6B
:10014000A22AA22AA22AA22AA22A692A6E2A732AEB
:10015000782A7D2A822A872A8C2AAB1FA22A850127
:100160002A083F39B000C1000030D3232B0E0739D5
:10017000B100B10E073AC1000830D3239A28C0124B
:100180000B1AC828A701A601A501A401A3010B16FB
:1001900044088207D228DF28E828F128FA28C40179
:1001A000C401C4013608003CD400D5015008022126
:1001B00042180B12421805141014C40A22295108BF
:1001C0000221C2180B12C21885141014C40A232964
:1001D00052080221421A0B12421A05161014C40AC0
:1001E000542953080221C21A0B12C21A8516101480
:1001F000C40A8529101054088F0055088E00101469
:10020000C401B62910108F01C8008E008E0D8F0D0D
:100210008E0D8F0D8E0D8F0DF8308E0548088E07D0
:1002200003188F0A8E0703188F0A0E08D5070318C4
:10023000D40A0F08D4078E098F0901308E070318DE
:100240008F0A08000800421C080043183E29451880
:100250003829BC0B2E293808BC00D0033209013ED6
:10026000963E5006031D08000430BC0045140800EB
:10027000BC0B0800451042104314080045184E29D5
:10028000BC0B45293808BC00D00A9630320750060E
:10029000031D08000430BC0045140800BC0B080016
:1002A0004510421043100800C21C0800C3186F29F3
:1002B000C5186929BD0B5F293908BD00D103330971
:1002C000013E963E5106031D08000430BD00C514D2
:1002D0000800BD0B0800C510C210C3140800C518E3
:1002E0007F29BD0B76293908BD00D10A9630330726
:1002F0005106031D08000430BD00C5140800BD0BE5
:100300000800C510C210C3100800421E0800431A9E
:10031000A029451A9A29BE0B90293A08BE00D2039B
:100320003409013E963E5206031D08000430BE000B
:1003300045160800BE0B080045124212431608007D
:10034000451AB029BE0BA7293A08BE00D20A96303A
:1003500034075206031D08000430BE00451608008D
:10036000BE0B08004512421243120800C21E0800CC
:10037000C31AD129C51ACB29BF0BC1293B08BF001D
:10038000D3033509013E963E5306031D0800043091
:10039000BF00C5160800BF0B0800C512C212C31665
:1003A0000800C51AE129BF0BD8293B08BF00D30AB2
:1003B000963035075306031D08000430BF00C516EC
:1003C0000800BF0B0800C512C212C312080040107B
:1003D0000B12C0190F2AA90CAA0CAB0CAC0C031CF5
:1003E000A22AA90CAA0CAB0C0318A22AA90CAA0CCD
:1003F0000318A22A2A082B062C06031DA22A2A0863
:1004000003199A2AF039703A0319A52A2A08C03923
:10041000803A03198C282A0FA22A0B160800C01153
:10042000A80CA90CAA0CAB0CAC0C031CA22AA80C9F
:10043000A90CAA0CAB0C0318A22AA80CA90CAA0C94
:100440000318A22AA80CA90C0318A22A29082A0614
:100450002B062C06031DA22A2908F039703A031D29
:10046000A22AC01FEC2A401FEA2A40132B08C10011
:100470002918FC2A2A087223C018FC2AA919422A22
:10048000291DFC2A291D4E2AA91DE32A4019EF2AFD
:10049000D323FE22401340102123FC2ACD23C10088
:1004A0004130840007302B0554202B1E5F2AAB19E6
:1004B0008004FF3AAB1D80052A0872233E2A0005FE
:1004C0000319652AAB19E72AFC2AAB1DE72AFC2A87
:1004D000A22A431C42143808BC00912A4318421433
:1004E0003808BC00912AC31CC2143908BD00912AE7
:1004F000C318C2143908BD00912A431E42163A0897
:10050000BE00912A431A42163A08BE00912AC31E21
:10051000C2163B08BF00912AC31AC2163B08BF008F
:10052000912AC0130B16371C080043094206C1006C
:100530007F30D32B2B08031DA22A4013C01785013F
:100540000B160800C0130B160800C01FEC2A401F32
:10055000EA2A40132B08C1002A08F739753A031913
:10056000C52A013A0319C32A023A0319D32A013AC8
:100570000319D72A2A0803392D077223C018FC2A29
:10058000AA1DE32ADB2A1C30C02AAA1DCD2AAB03F0
:10059000AB0D2B0DFC39AD00FC2AAB03AB0D2B0DC5
:1005A000FC392D06E52A0630AA1DE32AFC2A07306D
:1005B000AA1DE32AF22A4019EF2AD323FE22401370
:1005C00040102123FC2ACD232B06031DFC2AFE22EA
:1005D0004013FC2A4017FC2AC0134013FC2A073A98
:1005E000031DFC2A21302B06031DFC2AA423FE2216
:1005F000401340102123FC2A0B160800C8010130CB
:100600008500C80F012B03308500C80F052B123061
:100610008500C80F092B30308500C80F0D2B213005
:100620008500C80F112B03308500C80F152B123021
:100630008500C80F192B10308500C80F1D2B8501B0
:1006400008000030CD23B0000830CD23B100B10E3A
:1006500031097039B1000230CD23B2000330CD230F
:10066000B3000430CD23B4000530CD23B5002230D3
:10067000CD23B8002330CD23B9002430CD23BA00D8
:100680002530CD23BB002030CD23B6002130CD2333
:10069000B70008007F30CD23C3003208431CFF3A67
:1006A000431C013E963ED0003308C31CFF3AC31CD6
:1006B000013E963ED1003408431EFF3A431E013EE0
:1006C000963ED2003508C31EFF3AC31E013E963E39
:1006D000D3001030BC00BD00BE00BF003330C500E9
:1006E000C2000800C0104011003A03190034083A53
:1006F00003190834143A03191C341E3A031902343E
:10070000013A03190334073A03190434013A03196F
:100710000534253A03192034013A03192134033AE8
:1007200003192234013A03192334073A03192434F4
:10073000013A031925344015233A03190634013AC6
:1007400003190734C0147F340130C1000030D323B3
:100750003230C1000230D3230330D3230430D323FB
:100760000530D3230030C1000830D3230130C1004D
:100770002230D3232330D3232430D3232530D32353
:100780004E30C1002030D3238030C1001C30D32331
:100790000130C1002130D323080083169B001C14B4
:1007A0001A0883120800CD234106031908004108E6
:1007B00083169A001C158B1355309D00AA309D009E
:0E07C0009C148B171C119C18E32B831208004D
:02400E00D43F9D
:104200000100FF00320032003200320014000D00C5
:104210000000FF00FF00FF00FF00FF00FF00FF00A5
:10422000FF00FF00FF00FF00FF00FF00FF00FF0096
:10423000FF00FF00FF00FF008000FF00FF00FF0005
:0C4240004E00010001000100010001001F
:104260002034343473346534723476346F3420340B
:1042700046342E3443346134F1346134643461346F
:10428000313436342F34303439342F3430343534FB
:0242FE000000BE
:00000001FF
