:1000000023C03CC03AC039C03EC037C036C035C03E
:1000100034C033C032C031C030C099C02EC02DC0F2
:100020002CC02BC02AC02E2E384D487A2E2E002EE2
:100030002E5369676E616C4465636F646572205608
:10004000302E31322E2E000011241FBECFEDCDBF39
:1000500010E0A0E6B0E0E6E4F7E003C0C895319612
:100060000D92A036B107D1F710E0A0E6B0E001C0D4
:100070001D92A43BB107E1F744C1C2CF0F9309E041
:100080000EBD0F9118951F920F920FB60F9211246B
:100090002F938F939F93EF93FF93829B02C0A79818
:1000A00001C0A79A88E08EBD1DBC1CBC2091B10088
:1000B0002F5F2093B100A09B09C0A79B04C02A30EA
:1000C000E0F182E039C01092B10037C0A19B05C0B9
:1000D000A79933C01092B20027C0A29B17C090917D
:1000E000B300990FA79991609093B300283029F538
:1000F0008091B2008630F9F0E82FFF27EC59FF4FCE
:1001000090838F5F8093B20024BB17C0A39B13C062
:10011000A79B0AC081E084BB8093B1008091B200AC
:100120008093AE00989A09C084E084BB1092B1001D
:100130001092B30002C081E084BBFF91EF919F91C8
:100140008F912F910F900FBE0F901F9018951F92B7
:100150000F920FB60F9211242F933F934F935F93FB
:100160008F939F93EF93FF9378942091AF002F5F2D
:100170002093AF00213A09F584E68093AF0091E027
:1001800020E030E0EEE6F0E08081853618F088B3BC
:10019000892B88BB2F5F3F4F38962830310511F0EF
:1001A000990FF2CF9A9A80916A008823D9F08091B2
:1001B0006A00815080936A0015C031E040E050E051
:1001C000EEE6F0E08081281728F088B3932F909511
:1001D000892388BB4F5F5F4F38964830510511F037
:1001E000330FF0CFFF91EF919F918F915F914F91DE
:1001F0003F912F910F900FBE0F901F901895309147
:10020000AD0021E0A0E0B0E0582F562376E1482F62
:1002100040954623EBE6F0E0822F852339F070838A
:1002200085B3922F9095892385BB322B822F84230F
:1002300039F0108285B3922F9095892385BB39239D
:1002400011963896A830B10511F0220FE5CF309302
:10025000AD00089590E020E030E005C0FF27EC59A4
:10026000FF4F80819827E22F8091AE002F5F3F4F94
:10027000E817A0F3992309F041C080916400807CC5
:10028000803809F03BC08091650087FF37C08091BE
:10029000650083FF33C09091650097709093630071
:1002A000809165008095807720916400880F482FA9
:1002B0005527440F551F2F733327422B532B509331
:1002C000AC004093AB00A2E0B0E029D2802D782FA3
:1002D000A1E0B0E024D2802D682F4617570759F0CF
:1002E0006F5F7F4F4617570719F081E090E0089540
:1002F000985F9093630082E090E0089580E090E042
:1003000008951F938FEF87BB8AEE81BB85E182BB87
:1003100088E08EBD88EB92E09BBD8ABD85E286BFFA
:1003200082E080BF93E093BF81E489BF80E48BBF0C
:1003300095BF84E635E021EA94E0EBE6F0E08383C4
:100340003583248397838683389640E0EB3AF4071D
:10035000B1F7A3E0B0E0E3D1802D9927809360004E
:10036000843049F48EE38093880080938A008093E0
:10037000A8008093AA00A4E0B0E0D1D1802D9927F5
:1003800085BB85B38093AD00A5E0B0E0C8D1802DDA
:1003900080936100A6E0B0E0C2D1802D809362001E
:1003A00013BA81E084BB7894F894989B10C1789438
:1003B00051DF823009F00AC1109163001F70F89478
:1003C000999A80916000863059F4212F3327B32FFA
:1003D000A22FA95BBF4FA3D1602D295C3F4FEFC077
:1003E000853059F4212F3327B32FA22FA959BF4F9E
:1003F00096D1602D295A3F4FE2C0843009F073C076
:10040000112379F467E080E0FADEAB9A8091AD00C9
:1004100088608093AD008EE6809383001092850003
:10042000D4C0113019F5AB98AA98A9988091AD0065
:10043000A898807F8093AD0087E380936B008BE169
:1004400080936D0080936C0080937300809375009F
:100450008093740080937B0080937D0080937C0068
:100460008EE68093830010928400AFC0123009F4AE
:10047000ACC0133009F4A9C0143079F460E780E00F
:10048000BEDEAF9A8091AD0080688093AD008EE6AD
:100490008093A3001092A50098C0153009F095C074
:1004A000AF98AE98AD988091AD00AC988F70809366
:1004B000AD0087E380938B008BE180938D00809368
:1004C0008C00809393008093950080939400809398
:1004D0009B0080939D0080939C008EE68093A300F8
:1004E0001092A40072C0833009F03FC01430D8F4D9
:1004F00080916100882311F0833091F4A091620013
:100500008A2F9927B92FA82FA15DBF4F08D1602D41
:10051000B92FA82FA95DBF4F02D1802D77276FDE9D
:100520001093610004C0183090F410936200212FE2
:100530003327B32FA22FA15DBF4FF1D0602D295DCE
:100540003F4FB32FA22FEBD0802D772758DE80911D
:100550006100882319F0833009F037C0A6E3B0E0CA
:10056000DED0602DAEE2B0E02CC0823069F41830ED
:1005700060F5212F3327B32FA22FA15DBF4FCFD01E
:10058000602D295D3F4F1BC0813069F41830E8F4BD
:10059000212F3327B32FA22FA15EBF4FC0D0602DD4
:1005A000295E3F4F0CC0183080F4212F3327B32F22
:1005B000A22FA15FBF4FB3D0602D295F3F4FB32F54
:1005C000A22FADD0802D77271ADE78949898789452
:1005D0007894F894999B16C078949998849912C04D
:1005E0008091AD00A4E0B0E0082EA1D08091610020
:1005F000A5E0B0E0082E9BD080916200A6E0B0E0BC
:10060000082E95D078947894F8949A9B38C0789472
:100610009A9831E040E050E0EBE6F0E080818823FA
:1006200089F0282F215069F485B3832331F022818A
:1006300085B3932F9095892303C0218185B3832BA4
:1006400085BB2083938185B3832331F08481981700
:1006500068F48581980F0AC08681891738F48781EC
:10066000891710F090E002C08781981B93834F5F39
:100670005F4F38964830510511F0330FCFCF809936
:1006800093CEF89482E080936A00789480916A0017
:100690008823E1F7809988CE969A9898809BFECF20
:1006A000F89482E080936A00789480916A008823AD
:1006B00039F1FBCF989B24C09898CCDD882301F1B9
:1006C0008091AB00A1E0B0E0082E31D08091AC0069
:1006D000A2E0B0E0082E2BD0809163008770A3E0E9
:1006E000B0E0082E24D08093600080E0A4E0B0E069
:1006F000082E1DD0E199FECF9698E0E0F0E0099534
:100700008099D8CF9698F89482E080936A00789484
:1007100080916A008823E1F7809946CEFDCFE19968
:10072000FECFBFBBAEBBE09A11960DB20895E19922
:10073000FECFBFBBAEBB0DBA11960FB6F894E29ACE
:06074000E19A0FBE0895CE
:00000001FF
