:1000000010C0189518951895189518951895189565
:100010001895189518951895189518951895189578
:1000200018958FE58DBFC8E5E0E74E2E81E08EBFC5
:10003000D1E0F1E05F2EA89584B7082E877F84BFBA
:1000400088E1992781BD91BDEEEFF0E0A0E6B0E038
:1000500088278D933197E9F7662470916C007F773C
:1000600070936C00A0E6B0E0EEE0F4E00ED1B89A38
:10007000B998C19AD19AD39AA4E6B0E0E2E1F4E04B
:1000800004D1ACE6B0E08C9187FB0EF429C0DB9A7A
:10009000E5E0F0E0D4D0D99AE4E6F0E01DD1E6E165
:1000A000F4E0ACD100D108F016C0B19902C0DB98E1
:1000B000FFCF81E090E0D2D0A4E6B0E0EAE1F4E046
:1000C0009DD1E4E6F0E008D14BD1EDE0F0E0A4E60C
:1000D000B0E0E3D0E1CF70916C00706870936C0079
:1000E000A4E6B0E0E2E1F4E0D0D0DB9AD998B1998F
:1000F000A5C0E4E6F0E0F0D0E0E6F0E0F2D0D3D046
:1001000008F079C0E8E6F0E0E7D0E2E1F4E076D18B
:10011000CAD081E008F480E08F93E8E6F0E0DCD01C
:10012000EEE1F4E06BD1BFD081E010F009F080E0A7
:100130009F918923882309F411C0DB98D99AA8E6F6
:10014000B0E0EAE1F4E05AD1E8E6F0E0C5D008D149
:10015000EDE0F0E0A8E6B0E0A0D03AC0E8E6F0E0DC
:10016000BBD0E2E2F4E04AD19ED081E008F480E026
:100170008F93E8E6F0E0B0D0E6E2F4E03FD193D030
:1001800081E010F009F080E09F918923882309F431
:1001900011C0DB9AD998A8E6B0E0EAE1F4E02ED1EC
:1001A000E8E6F0E099D0DCD0EDE0F0E0A8E6B0E0E1
:1001B00074D00EC0E8E6F0E08FD0E6E2F4E01ED1A5
:1001C00072D008F405C0A8E6B0E0E2E1F4E05DD04A
:1001D000C09A81E090E042D0A4E6B0E0EAE1F4E029
:1001E0000DD1E4E6F0E078D0BBD0EDE0F0E0A4E69D
:1001F000B0E053D07ECFA4E6B0E0E2E1F4E045D039
:10020000E4E6F0E069D0EAE2F4E0F8D04CD008F09F
:1002100015C0C098D99ADB9AA4E6B0E0EAE1F4E010
:10022000EDD0E4E6F0E058D09BD0EDE0F0E0A4E6BD
:10023000B0E033D081E090E011D0E2CF22CF88EE61
:1002400093E00CD03197D9F708953197F1F70895DD
:10025000689462F80895E89462F80895EF93FF9324
:10026000EE27E82BE92B31F0E8ECF0E03197F1F7DD
:100270000197D1F7FF91EF910895C895319600202D
:10028000089591E005C092E003C094E001C098E0B9
:10029000F4DF0D929A95E1F7089594E081918D93A2
:1002A0009A95E1F708950F928F939F93D216E306E4
:1002B000F4060FB680E890E8802795270FBE8907DF
:1002C00039F00FB6892B87FD02C081E008260FBEEA
:1002D0009F918F910F900895D190E190F1900191AD
:1002E000089521913191419151910895D094E094D4
:1002F000F09491E0D90E9927E91EF91E1095089502
:10030000652F90E8440F551F5927990F479560783E
:10031000102F90E8FF0C001F0927990FF794107811
:1003200000380895FF0C90E89027110F9795F794E7
:10033000092F08959FE7092FF92A9FEFD92EE92E5B
:100340000895DD24EE24FF240027112708950AF0E4
:1003500045D0E8CF5FE322273327442701C0C1DF20
:10036000CFDF5038B1F3003899F3902F951B8BF302
:1003700012F434D0FACF983118F0222733274427CB
:10038000983028F0232F342F44279850F9CF992301
:1003900029F04695379527959A95D9F7912F962765
:1003A00042F014D0B0F6F794E794D7940F5F8BF631
:1003B000C1CF10D051F008F499DFFF2052F2DD0CCC
:1003C000EE1CFF1C0150CBF7B5CFBBCFD20EE31E06
:1003D000F41E0895D21AE30AF40A0895DF92EF9208
:1003E000FF920F931F93D22EE32EF42E052F162F7C
:1003F0006F915F914F913F912F9108953EDF202D96
:100400003CDF302D3ADF402D38DF502D089500407D
:100410001C4600000000005F6A470000803F0000AB
:0E0420007A4400407A440000FA4400409C45B3
:00000001FF
