:1000000010C0189518951895189518951895189565
:100010001895189518951895189518951895189578
:1000200018958FE58DBFC8E5E0E74E2E81E08EBFC5
:10003000D1E0F1E05F2EA89584B7082E877F84BFBA
:1000400088E1992781BD91BDEEEFF0E0A0E6B0E038
:1000500088278D933197E9F7662470916C007F773C
:1000600070936C00A0E6B0E0E8EFF6E083D2B998B8
:10007000C19AD19AD39AD69AA4E6B0E0ECEFF6E012
:1000800079D2ACE6B0E08C9187FB0EF429C0DB9A04
:10009000E5E0F0E049D2D99AE4E6F0E092D2E0E07F
:1000A000F7E021D375D208F016C0B19902C0DB98F1
:1000B000FFCF81E090E047D2A4E6B0E0E4E0F7E0D3
:1000C00012D3E4E6F0E07DD2C0D2EDE0F0E0A4E6A9
:1000D000B0E058D2E1CF70916C00706870936C0002
:1000E000A4E6B0E0ECEFF6E045D2DB9AD998B199FE
:1000F00018C2DB9881E88FBD82E08EBD81E08093DD
:100100006D0000916D00063910F009F072C0ADE687
:10011000B0E08C9199279BBD8ABD82E390E013D219
:10012000E8E6F0E04ED2ECEFF6E0DDD231D281E04D
:1001300008F480E08F93E8E6F0E043D2E8E0F7E0EF
:10014000D2D226D281E010F009F080E09F9189237D
:10015000882309F40FC0DB98D99AECE0F7E0C3D20A
:10016000E8E6F0E02ED271D2EDE0F0E0A8E6B0E0F3
:1001700009D238C0E8E6F0E024D2E0E1F7E0B3D2FB
:1001800007D281E008F480E08F93E8E6F0E019D22E
:10019000E4E1F7E0A8D2FCD181E010F009F080E0C2
:1001A0009F918923882309F40FC0DB9AD998ECE04A
:1001B000F7E099D2E8E6F0E004D247D2EDE0F0E0D3
:1001C000A8E6B0E0DFD10EC0E8E6F0E0FAD1E4E165
:1001D000F7E089D2DDD108F405C0A8E6B0E0ECEF85
:1001E000F6E0C8D1ADE6B0E08C918F5F8C9308F457
:1001F00088CF86E980936D0040916D0000E0041780
:1002000010F009F072C0ADE6B0E08C9199279BBD6B
:100210008ABD82E390E097D1E8E6F0E0D2D1ECEF3E
:10022000F6E061D2B5D181E008F480E08F93E8E692
:10023000F0E0C7D1E8E0F7E056D2AAD181E010F0B3
:1002400009F080E09F918923882309F40FC0DB988F
:10025000D99AECE0F7E047D2E8E6F0E0B2D1F5D188
:10026000EDE0F0E0A8E6B0E08DD138C0E8E6F0E0DF
:10027000A8D1E0E1F7E037D28BD181E008F480E04B
:100280008F93E8E6F0E09DD1E4E1F7E02CD280D155
:1002900081E010F009F080E09F918923882309F420
:1002A0000FC0DB9AD998ECE0F7E01DD2E8E6F0E069
:1002B00088D1CBD1EDE0F0E0A8E6B0E063D10EC08C
:1002C000E8E6F0E07ED1E4E1F7E00DD261D108F498
:1002D00005C0A8E6B0E0ECEFF6E04CD180916D00EF
:1002E000815080936D0008F087CF81E080936D008E
:1002F00000916D00063910F009F072C0ADE6B0E073
:100300008C9199279BBD8ABD82E390E01CD1E8E6E1
:10031000F0E057D1ECEFF6E0E6D13AD181E008F415
:1003200080E08F93E8E6F0E04CD1E8E0F7E0DBD145
:100330002FD181E010F009F080E09F91892388237C
:1003400009F40FC0DB98D99AECE0F7E0CCD1E8E6ED
:10035000F0E037D17AD1EDE0F0E0A8E6B0E012D1DC
:1003600038C0E8E6F0E02DD1E0E1F7E0BCD110D1F3
:1003700081E008F480E08F93E8E6F0E022D1E4E148
:10038000F7E0B1D105D181E010F009F080E09F9154
:100390008923882309F40FC0DB9AD998ECE0F7E0B1
:1003A000A2D1E8E6F0E00DD150D1EDE0F0E0A8E612
:1003B000B0E0E8D00EC0E8E6F0E003D1E4E1F7E019
:1003C00092D1E6D008F405C0A8E6B0E0ECEFF6E084
:1003D000D1D0ADE6B0E08C918F5F8C9308F488CFDC
:1003E00086E980936D0040916D0000E0041710F0E5
:1003F00009F072C0ADE6B0E08C9199279BBD8ABD33
:1004000082E390E0A0D0E8E6F0E0DBD0ECEFF6E0AD
:100410006AD1BED081E008F480E08F93E8E6F0E096
:10042000D0D0E8E0F7E05FD1B3D081E010F009F080
:1004300080E09F918923882309F40FC0DB98D99A23
:10044000ECE0F7E050D1E8E6F0E0BBD0FED0EDE024
:10045000F0E0A8E6B0E096D038C0E8E6F0E0B1D031
:10046000E0E1F7E040D194D081E008F480E08F93A0
:10047000E8E6F0E0A6D0E4E1F7E035D189D081E00C
:1004800010F009F080E09F918923882309F40FC0C0
:10049000DB9AD998ECE0F7E026D1E8E6F0E091D0DD
:1004A000D4D0EDE0F0E0A8E6B0E06CD00EC0E8E615
:1004B000F0E087D0E4E1F7E016D16AD008F405C097
:1004C000A8E6B0E0ECEFF6E055D080916D008150E9
:1004D00080936D0008F087CF84EF91E034D0A4E6DC
:1004E000B0E0ECEFF6E046D0E4E6F0E06AD0E8E118
:1004F000F7E0F9D04DD008F014C0D99ADB9AA4E601
:10050000B0E0E4E0F7E0EFD0E4E6F0E05AD09DD0D0
:10051000EDE0F0E0A4E6B0E035D081E090E013D06B
:10052000E3CFAFCDF894FFCF88EE93E00CD03197B6
:10053000D9F708953197F1F70895689462F808950E
:10054000E89462F80895EF93FF93EE27E82BE92BE8
:1005500031F0E8ECF0E03197F1F70197D1F7FF9136
:10056000EF910895C89531960020089591E005C057
:1005700092E003C094E001C098E0F4DF0D929A95F8
:10058000E1F7089594E081918D939A95E1F70895AC
:100590000F928F939F93D216E306F4060FB680E86E
:1005A00090E8802795270FBE890739F00FB6892B71
:1005B00087FD02C081E008260FBE9F918F910F90AA
:1005C0000895D190E190F190019108952191319198
:1005D000419151910895D094E094F09491E0D90E16
:1005E0009927E91EF91E10950895652F90E8440F8C
:1005F000551F5927990F47956078102F90E8FF0CE9
:10060000001F0927990FF794107800380895FF0C00
:1006100090E89027110F9795F794092F08959FE779
:10062000092FF92A9FEFD92EE92E0895DD24EE2413
:10063000FF240027112708950AF045D0E8CF5FE393
:1006400022273327442701C0C1DFCFDF5038B1F361
:10065000003899F3902F951B8BF312F434D0FACF16
:10066000983118F0222733274427983028F0232F79
:10067000342F44279850F9CF992329F04695379580
:1006800027959A95D9F7912F962742F014D0B0F676
:10069000F794E794D7940F5F8BF6C1CF10D051F049
:1006A00008F499DFFF2052F2DD0CEE1CFF1C015014
:1006B000CBF7B5CFBBCFD20EE31EF41E0895D21AEE
:1006C000E30AF40A0895DF92EF92FF920F931F93CB
:1006D000D22EE32EF42E052F162F6F915F914F919E
:1006E0003F912F9108953EDF202D3CDF302D3ADFE2
:1006F000402D38DF502D089500401C4600000000BA
:10070000005F6A470000803F00007A4400004842D2
:0C07100000407A440000FA4400409C467F
:00000001FF
