:1000000010C0189518951895189518951895189565
:100010001895189518951895189518951895189578
:1000200018958FE58DBFC8E5E0E74E2E81E08EBFC5
:10003000D1E0F1E05F2EA89584B7082E877F84BFBA
:1000400088E1992781BD91BDEEEFF0E0A0E6B0E038
:1000500088278D933197E9F76624D69A81EA8FBD78
:1000600082E08EBD81E080936000009160000639DF
:1000700010F009F010C0A0E6B0E08C9199279BBD6C
:100080008ABD82E390E036D0A0E6B0E08C918F5F2D
:100090008C9308F4EACF86E9809360004091600079
:1000A00000E0041710F009F010C0A0E6B0E08C9159
:1000B00099279BBD8ABD82E390E01CD080916000AF
:1000C00081508093600008F0E9CFE4E1F0E003D0D4
:1000D000C9CFF894FFCF88EE93E00CD03197D9F7D1
:1000E00008953197F1F70895689462F80895E894B7
:1000F00062F80895EF93FF93EE27E82BE92B31F098
:10010000E8ECF0E03197F1F70197D1F7FF91EF912B
:02011000089550
:00000001FF
