:100000002CC05FC044C043C061C041C040C03FC0BD
:100010003EC03DC03CC03BC03AC0BCC038C037C089
:1000200036C035C034C02E2E31304D487A2E2E00C9
:100030002E2E4F70656E6465636F64657220763036
:100040002E3420286329204B7566657220323030AB
:10005000362C323030382E2E000011241FBECFED4A
:10006000CDBF10E0A0E6B0E0E6E0F7E003C0C89541
:1000700031960D92A036B107D1F710E0A0E6B0E0BE
:1000800001C01D92A938B107E1F7DFD23BC3B8CF59
:100090008FEF87BB8AEE81BB85E182BB88E08EBD96
:1000A00086E693E09BBD8ABD84EF86BF82E080BF79
:1000B00085E083BF81E489BF80E48BBF83E085BF97
:1000C00008950F9309E00EBD0F9118951F920F929E
:1000D0000FB60F9211242F938F939F93EF93FF935B
:1000E000829B02C0A79801C0A79A88E08EBD1DBC64
:1000F0001CBC209186002F5F20938600A09B09C026
:10010000A79B04C02A30E0F182E039C0109286003B
:1001100037C0A19B05C0A79933C01092870027C0A4
:10012000A29B17C090918800990FA7999160909316
:100130008800283029F5809187008630F9F0E82F73
:10014000FF27ED59FF4F90838F5F8093870024BB7B
:1001500017C0A39B13C0A79B0AC081E084BB8093F8
:1001600086008091870080938400989A09C084E07B
:1001700084BB109286001092880002C081E084BB8C
:10018000FF91EF919F918F912F910F900FBE0F9044
:100190001F9018951F920F920FB60F9211242F9354
:1001A0003F935F936F937F938F939F93AF93BF938F
:1001B000EF93FF93789480916900882329F08091D0
:1001C000690081508093690031E0A0E0B0E08A2F9F
:1001D0009B2F63E070E070D2F92FE82FE659FF4FB4
:1001E00080818823D1F0282F215069F488B383239C
:1001F00031F0228188B3932F9095892303C0218108
:1002000088B3832B88BB8A2F9B2F63E070E054D286
:10021000F92FE82FE659FF4F20831196A830B1053A
:1002200011F0330FD4CFFF91EF91BF91AF919F9118
:100230008F917F916F915F913F912F910F900FBEA2
:100240000F901F9018958091610083FF4BC18770BC
:10025000F89490916000973009F093C0999A8823A0
:10026000A9F4C09888E280936A0010926B00C19A4A
:1002700080936D0010926F00C29810927000C39826
:1002800084E180937300109274002BC18130B9F423
:10029000C09A88E280936A0010926C00C19A8093A1
:1002A0006D0010926F00C2988093700010927100E0
:1002B000C39A8CE3809373001092750012C1823050
:1002C00021F4C19810926D000AC0833091F4C19A54
:1002D00088E280936D0080936E0080936F00C098D9
:1002E00010926A00C29810927000C3981092730026
:1002F000F8C08430A9F4C49888E280937600109204
:100300007700C59A8093790010927B00C69810926E
:100310007C00C79884E180937F0010928000E1C048
:100320008530B9F4C49A88E2809376001092780000
:10033000C59A8093790010927B00C69880937C00C8
:1003400010927D00C79A8CE380937F001092810009
:10035000C8C0863021F4C5981092790008C0C59AAB
:1003600088E28093790080937A0080937B00C49820
:1003700010927600C69810927C00C79810927F0069
:10038000B0C0963041F5999A882311F4C39828C0DB
:10039000813011F4C39828C0823029F4C398C29ADE
:1003A000C198C0989EC0833019F4C39AC298F8CF00
:1003B000843019F4C49AC59804C0853021F4C498D7
:1003C000C59AC69886C0863019F4C498C59880C06E
:1003D000C498C59884C09530C1F4999A882311F4C3
:1003E000C29818C0813011F4C29819C08230B9F295
:1003F000833019F4C39AC49856C0843011F4C3985A
:1004000051C08530B9F4C39858C09430B9F4999A62
:10041000882319F4C198C09A64C0813011F4C19A3C
:10042000C0CF823049F1833091F18430D9F18530E9
:1004300009F443C0863009F052C04AC0882349F409
:100440008091620080936A0010926D00C09AC198FA
:1004500048C0813049F48091620080936D00109211
:100460006A00C098C19A3DC0823049F48091620010
:100470008093700010927300C29AC39832C0833088
:1004800049F4809162008093730010927000C298CA
:10049000C39A27C0843049F480916200809376002B
:1004A00010927900C49AC5981CC0853049F4809197
:1004B00062008093790010927600C498C59A11C0AA
:1004C00090916200863039F490937C0010927F0006
:1004D000C69AC79806C090937F0010927C00C69879
:1004E000C79A7894089590E020E030E005C0FF2797
:1004F000ED59FF4F80819827E22F809184002F5F74
:100500003F4FE817A0F39923B9F580916300807CF1
:10051000803891F58091640087FF2EC0809164003F
:100520008F708093610020916400209520778091E6
:100530006300220F3327220F331F8F739927282B35
:10054000392B3093830020938200A2E0B0E0C6D024
:10055000802DA1E0B0E0C2D0402D9927982F8827A8
:100560005527842B952B2817390719F482E090E042
:10057000089581E090E0089580E090E00895F89477
:1005800082E0809369007894809169008823E1F784
:1005900080995AC0969A9898809BFECFF89482E0F2
:1005A00080936900789480916900882309F43EC0A3
:1005B000FACF989B3BC0989896DF882309F436C001
:1005C00080918200A1E0B0E0082E90D0809183005D
:1005D000A2E0B0E0082E8AD0909161009770A3E06D
:1005E000B0E0092E83D0992311F48CE009C091303A
:1005F00011F484E105C0923011F488E201C080E575
:10060000809362009093600080916200A4E0B0E06B
:10061000082E6CD080E0A5E0B0E0082E67D0E1990C
:10062000FECF9698F894E0E0F0E009958099C1CF6C
:100630009698F89482E0809369007894809169009C
:100640008823E1F7809BFECF089522DDA4E0B0E08F
:1006500045D0802D80936200A3E0B0E03FD0802D94
:10066000992780936000843010F418BA06C0A5E082
:10067000B0E034D0802D992788BB13BA81E084BBC9
:100680007894F894989B06C078942DDF823009F412
:10069000DADD98987894F894999B09C078949998A1
:1006A000849905C088B3A5E0B0E0082E1FD07894E7
:1006B0008099E7CF64DFE5CF5527002480FF02C093
:1006C000060E571F660F771F6115710521F096956D
:1006D0008795009799F7952F802D0895E199FECF82
:1006E000BFBBAEBBE09A11960DB20895E199FECF63
:1006F000BFBBAEBB0DBA11960FB6F894E29AE19A61
:060700000FBE0895FFCFBB
:00000001FF
